{
  "contractName": "ReReviews",
  "abi": [
    {
      "anonymous": false,
      "inputs": [
        {
          "indexed": true,
          "internalType": "uint256",
          "name": "_id",
          "type": "uint256"
        },
        {
          "indexed": true,
          "internalType": "address",
          "name": "_reviewer",
          "type": "address"
        },
        {
          "indexed": false,
          "internalType": "string",
          "name": "_name",
          "type": "string"
        },
        {
          "indexed": false,
          "internalType": "string",
          "name": "_ipfsHash",
          "type": "string"
        }
      ],
      "name": "addReviewEvent",
      "type": "event"
    },
    {
      "anonymous": false,
      "inputs": [
        {
          "indexed": true,
          "internalType": "uint256",
          "name": "_id",
          "type": "uint256"
        },
        {
          "indexed": true,
          "internalType": "address",
          "name": "_reviewer",
          "type": "address"
        },
        {
          "indexed": true,
          "internalType": "address",
          "name": "_visitor",
          "type": "address"
        },
        {
          "indexed": false,
          "internalType": "string",
          "name": "_name",
          "type": "string"
        },
        {
          "indexed": false,
          "internalType": "uint256",
          "name": "_totalUpvotes",
          "type": "uint256"
        },
        {
          "indexed": false,
          "internalType": "uint256",
          "name": "_totalRewards",
          "type": "uint256"
        },
        {
          "indexed": false,
          "internalType": "uint256",
          "name": "_totalDownvotes",
          "type": "uint256"
        },
        {
          "indexed": false,
          "internalType": "string",
          "name": "_ipfsHash",
          "type": "string"
        }
      ],
      "name": "viewReviewEvent",
      "type": "event"
    },
    {
      "constant": true,
      "inputs": [
        {
          "internalType": "uint256",
          "name": "",
          "type": "uint256"
        }
      ],
      "name": "reviews",
      "outputs": [
        {
          "internalType": "uint256",
          "name": "id",
          "type": "uint256"
        },
        {
          "internalType": "address payable",
          "name": "reviewer",
          "type": "address"
        },
        {
          "internalType": "address",
          "name": "visitor",
          "type": "address"
        },
        {
          "internalType": "string",
          "name": "name",
          "type": "string"
        },
        {
          "internalType": "string",
          "name": "comments",
          "type": "string"
        },
        {
          "internalType": "uint256",
          "name": "totalUpvotes",
          "type": "uint256"
        },
        {
          "internalType": "uint256",
          "name": "totalRewards",
          "type": "uint256"
        },
        {
          "internalType": "uint256",
          "name": "totalDownvotes",
          "type": "uint256"
        },
        {
          "internalType": "string",
          "name": "ipfsHash",
          "type": "string"
        }
      ],
      "payable": false,
      "stateMutability": "view",
      "type": "function"
    },
    {
      "constant": false,
      "inputs": [
        {
          "internalType": "string",
          "name": "_name",
          "type": "string"
        },
        {
          "internalType": "string",
          "name": "_comments",
          "type": "string"
        },
        {
          "internalType": "string",
          "name": "_ipfsHash",
          "type": "string"
        }
      ],
      "name": "addReview",
      "outputs": [],
      "payable": false,
      "stateMutability": "nonpayable",
      "type": "function"
    },
    {
      "constant": true,
      "inputs": [],
      "name": "getNumberOfReviews",
      "outputs": [
        {
          "internalType": "uint256",
          "name": "",
          "type": "uint256"
        }
      ],
      "payable": false,
      "stateMutability": "view",
      "type": "function"
    },
    {
      "constant": true,
      "inputs": [],
      "name": "getReviewsToView",
      "outputs": [
        {
          "internalType": "uint256[]",
          "name": "",
          "type": "uint256[]"
        }
      ],
      "payable": false,
      "stateMutability": "view",
      "type": "function"
    },
    {
      "constant": false,
      "inputs": [
        {
          "internalType": "uint256",
          "name": "_id",
          "type": "uint256"
        },
        {
          "internalType": "uint256",
          "name": "_totalUp",
          "type": "uint256"
        },
        {
          "internalType": "uint256",
          "name": "_totalDown",
          "type": "uint256"
        }
      ],
      "name": "viewReview",
      "outputs": [],
      "payable": true,
      "stateMutability": "payable",
      "type": "function"
    },
    {
      "constant": false,
      "inputs": [],
      "name": "kill",
      "outputs": [],
      "payable": false,
      "stateMutability": "nonpayable",
      "type": "function"
    }
  ],
  "bytecode": "0x6080604052336000806101000a81548173ffffffffffffffffffffffffffffffffffffffff021916908373ffffffffffffffffffffffffffffffffffffffff1602179055506110d0806100536000396000f3fe6080604052600436106100555760003560e01c806302afd9881461005a57806310b0e1ce146102505780631c8eb9371461029257806341c0e1b5146102fe578063e81c598f14610315578063e83ddcea14610340575b600080fd5b34801561006657600080fd5b5061024e6004803603606081101561007d57600080fd5b810190808035906020019064010000000081111561009a57600080fd5b8201836020820111156100ac57600080fd5b803590602001918460018302840111640100000000831117156100ce57600080fd5b91908080601f016020809104026020016040519081016040528093929190818152602001838380828437600081840152601f19601f8201169050808301925050505050505091929192908035906020019064010000000081111561013157600080fd5b82018360208201111561014357600080fd5b8035906020019184600183028401116401000000008311171561016557600080fd5b91908080601f016020809104026020016040519081016040528093929190818152602001838380828437600081840152601f19601f820116905080830192505050505050509192919290803590602001906401000000008111156101c857600080fd5b8201836020820111156101da57600080fd5b803590602001918460018302840111640100000000831117156101fc57600080fd5b91908080601f016020809104026020016040519081016040528093929190818152602001838380828437600081840152601f19601f82011690508083019250505050505050919291929050505061054e565b005b6102906004803603606081101561026657600080fd5b81019080803590602001909291908035906020019092919080359060200190929190505050610820565b005b34801561029e57600080fd5b506102a7610ba8565b6040518080602001828103825283818151815260200191508051906020019060200280838360005b838110156102ea5780820151818401526020810190506102cf565b505050509050019250505060405180910390f35b34801561030a57600080fd5b50610313610d03565b005b34801561032157600080fd5b5061032a610d96565b6040518082815260200191505060405180910390f35b34801561034c57600080fd5b506103796004803603602081101561036357600080fd5b8101908080359060200190929190505050610da0565b604051808a81526020018973ffffffffffffffffffffffffffffffffffffffff1673ffffffffffffffffffffffffffffffffffffffff1681526020018873ffffffffffffffffffffffffffffffffffffffff1673ffffffffffffffffffffffffffffffffffffffff16815260200180602001806020018781526020018681526020018581526020018060200184810384528a818151815260200191508051906020019080838360005b8381101561043d578082015181840152602081019050610422565b50505050905090810190601f16801561046a5780820380516001836020036101000a031916815260200191505b50848103835289818151815260200191508051906020019080838360005b838110156104a3578082015181840152602081019050610488565b50505050905090810190601f1680156104d05780820380516001836020036101000a031916815260200191505b50848103825285818151815260200191508051906020019080838360005b838110156105095780820151818401526020810190506104ee565b50505050905090810190601f1680156105365780820380516001836020036101000a031916815260200191505b509c5050505050505050505050505060405180910390f35b60026000815480929190600101919050555060405180610120016040528060025481526020013373ffffffffffffffffffffffffffffffffffffffff168152602001600073ffffffffffffffffffffffffffffffffffffffff168152602001848152602001838152602001600081526020016000815260200160008152602001828152506001600060025481526020019081526020016000206000820151816000015560208201518160010160006101000a81548173ffffffffffffffffffffffffffffffffffffffff021916908373ffffffffffffffffffffffffffffffffffffffff16021790555060408201518160020160006101000a81548173ffffffffffffffffffffffffffffffffffffffff021916908373ffffffffffffffffffffffffffffffffffffffff160217905550606082015181600301908051906020019061069b929190610ff6565b5060808201518160040190805190602001906106b8929190610ff6565b5060a0820151816005015560c0820151816006015560e082015181600701556101008201518160080190805190602001906106f4929190610ff6565b509050503373ffffffffffffffffffffffffffffffffffffffff166002547fedd1167195f08d6f88cb5a825a399ea4b2f976f2e71bed6455c5ab9bf73b8d168584604051808060200180602001838103835285818151815260200191508051906020019080838360005b8381101561077957808201518184015260208101905061075e565b50505050905090810190601f1680156107a65780820380516001836020036101000a031916815260200191505b50838103825284818151815260200191508051906020019080838360005b838110156107df5780820151818401526020810190506107c4565b50505050905090810190601f16801561080c5780820380516001836020036101000a031916815260200191505b5094505050505060405180910390a3505050565b60006002541161082f57600080fd5b60008311801561084157506002548311155b61084a57600080fd5b6000600160008581526020019081526020016000209050600183141561088a57600181600501540181600501819055503481600601540181600601819055505b60018214156108b357600181600701540181600701819055503481600601540381600601819055505b3373ffffffffffffffffffffffffffffffffffffffff168160010160009054906101000a900473ffffffffffffffffffffffffffffffffffffffff1673ffffffffffffffffffffffffffffffffffffffff16141561091057600080fd5b338160020160006101000a81548173ffffffffffffffffffffffffffffffffffffffff021916908373ffffffffffffffffffffffffffffffffffffffff1602179055508060010160009054906101000a900473ffffffffffffffffffffffffffffffffffffffff1673ffffffffffffffffffffffffffffffffffffffff166108fc349081150290604051600060405180830381858888f193505050501580156109bd573d6000803e3d6000fd5b508060020160009054906101000a900473ffffffffffffffffffffffffffffffffffffffff1673ffffffffffffffffffffffffffffffffffffffff168160010160009054906101000a900473ffffffffffffffffffffffffffffffffffffffff1673ffffffffffffffffffffffffffffffffffffffff16857f03911eec88bd04181b042d7836d109cf2cf22e485d1cb3514b54f4971fa14f258460030185600501548660060154876007015488600801604051808060200186815260200185815260200184815260200180602001838103835288818154600181600116156101000203166002900481526020019150805460018160011615610100020316600290048015610b0c5780601f10610ae157610100808354040283529160200191610b0c565b820191906000526020600020905b815481529060010190602001808311610aef57829003601f168201915b5050838103825284818154600181600116156101000203166002900481526020019150805460018160011615610100020316600290048015610b8f5780601f10610b6457610100808354040283529160200191610b8f565b820191906000526020600020905b815481529060010190602001808311610b7257829003601f168201915b505097505050505050505060405180910390a450505050565b606060006002541415610bed576000604051908082528060200260200182016040528015610be55781602001602082028038833980820191505090505b509050610d00565b6060600254604051908082528060200260200182016040528015610c205781602001602082028038833980820191505090505b50905060008090506000600190505b6002548111610c7c576001600082815260200190815260200160002060000154838381518110610c5b57fe5b60200260200101818152505081806001019250508080600101915050610c2f565b50606081604051908082528060200260200182016040528015610cae5781602001602082028038833980820191505090505b50905060008090505b82811015610cf857838181518110610ccb57fe5b6020026020010151828281518110610cdf57fe5b6020026020010181815250508080600101915050610cb7565b508093505050505b90565b6000809054906101000a900473ffffffffffffffffffffffffffffffffffffffff1673ffffffffffffffffffffffffffffffffffffffff163373ffffffffffffffffffffffffffffffffffffffff1614610d5c57600080fd5b6000809054906101000a900473ffffffffffffffffffffffffffffffffffffffff1673ffffffffffffffffffffffffffffffffffffffff16ff5b6000600254905090565b60016020528060005260406000206000915090508060000154908060010160009054906101000a900473ffffffffffffffffffffffffffffffffffffffff16908060020160009054906101000a900473ffffffffffffffffffffffffffffffffffffffff1690806003018054600181600116156101000203166002900480601f016020809104026020016040519081016040528092919081815260200182805460018160011615610100020316600290048015610e9e5780601f10610e7357610100808354040283529160200191610e9e565b820191906000526020600020905b815481529060010190602001808311610e8157829003601f168201915b505050505090806004018054600181600116156101000203166002900480601f016020809104026020016040519081016040528092919081815260200182805460018160011615610100020316600290048015610f3c5780601f10610f1157610100808354040283529160200191610f3c565b820191906000526020600020905b815481529060010190602001808311610f1f57829003601f168201915b505050505090806005015490806006015490806007015490806008018054600181600116156101000203166002900480601f016020809104026020016040519081016040528092919081815260200182805460018160011615610100020316600290048015610fec5780601f10610fc157610100808354040283529160200191610fec565b820191906000526020600020905b815481529060010190602001808311610fcf57829003601f168201915b5050505050905089565b828054600181600116156101000203166002900490600052602060002090601f016020900481019282601f1061103757805160ff1916838001178555611065565b82800160010185558215611065579182015b82811115611064578251825591602001919060010190611049565b5b5090506110729190611076565b5090565b61109891905b8082111561109457600081600090555060010161107c565b5090565b9056fea265627a7a7231582036735a295ca67b95ecff21a49c55a5a088da1e3de1c1924bc9a885e963bbc79664736f6c63430005100032",
  "source": "pragma solidity >=0.4.24;\r\n\r\nimport \"./Owned.sol\";\r\n\r\ncontract ReReviews is Owned {\r\n\r\n  // Structure to hold Review \r\n  struct Review {\r\n    uint id;\r\n    address payable reviewer;\r\n    address visitor;\r\n    string name;\r\n    string comments;\r\n    uint totalUpvotes;\r\n    uint totalRewards;\r\n    uint totalDownvotes;\r\n    string ipfsHash;\r\n  }\r\n\r\n  // State variables to map the address\r\n  mapping(uint => Review) public reviews;\r\n  uint reviewCounter;\r\n\r\n  //Events to capture Add Review\r\n  event addReviewEvent(\r\n    uint indexed _id,\r\n    address indexed _reviewer,\r\n    string _name,\r\n    string _ipfsHash\r\n    );\r\n\r\n  // Events to capture viewing the Review\r\n  event viewReviewEvent(\r\n    uint indexed _id,\r\n    address indexed _reviewer,\r\n    address indexed _visitor,\r\n    string _name,\r\n    uint _totalUpvotes,\r\n    uint _totalRewards,\r\n    uint _totalDownvotes,\r\n    string _ipfsHash);\r\n\r\n\r\n  //Add a review\r\n  function addReview(string memory _name, string memory _comments, string memory _ipfsHash) public {\r\n    // a new review\r\n    reviewCounter++;\r\n\r\n    //store this review\r\n    reviews[reviewCounter] = Review(\r\n        reviewCounter,\r\n        msg.sender,\r\n        address(0x0),\r\n        _name,\r\n        _comments,\r\n        0,\r\n        0.000,\r\n        0,\r\n        _ipfsHash\r\n      );\r\n\r\n    // restricting the person who already upvoted\r\n    // require(!reviews[msg.sender]);\r\n\r\n    // require that the upvoter or downvoter is casted to a valid review\r\n    // require(id > 0 && id <= reviewCounter);\r\n\r\n\r\n\r\n    // trigger the event\r\n    emit addReviewEvent(reviewCounter, msg.sender, _name, _ipfsHash);\r\n  }\r\n\r\n  // fetch the number of reviews in the contract\r\n  function getNumberOfReviews() public view returns (uint) {\r\n    return reviewCounter;\r\n  }\r\n\r\n  // fetch and returns all reviews IDs available for visitor\r\n  function getReviewsToView() public view returns (uint[] memory) {\r\n    // we check whether there is at least one review\r\n    if(reviewCounter == 0) {\r\n      return new uint[](0);\r\n    }\r\n\r\n    // prepare intermediary array\r\n    uint[] memory reviewIds = new uint[](reviewCounter);\r\n\r\n    uint numberOfReviewsForVisit = 0;\r\n    // iterate over reviews\r\n    for (uint i = 1; i <= reviewCounter; i++) {\r\n      // keep only the ID of reviews not reviewed yet\r\n      // if (reviews[i].visitor == 0x0) {\r\n        reviewIds[numberOfReviewsForVisit] = reviews[i].id;\r\n        numberOfReviewsForVisit++;\r\n      // }\r\n    }\r\n\r\n    // copy the reviewsID array into the smaller forReview array\r\n    uint[] memory forReview = new uint[](numberOfReviewsForVisit);\r\n    for (uint j = 0; j < numberOfReviewsForVisit; j++) {\r\n      forReview[j] = reviewIds[j];\r\n    }\r\n    return (forReview);\r\n  }\r\n\r\n  // View a review & upvote/downvote it\r\n  function viewReview(uint _id,uint _totalUp, uint _totalDown) payable public { \r\n    // we check whether there is at least one review\r\n    require(reviewCounter > 0);\r\n    // we check whether the review exists\r\n    require(_id > 0 && _id <= reviewCounter);\r\n\r\n    // we retrieve the review\r\n    Review storage review = reviews[_id];\r\n    if(_totalUp == 1 ){\r\n      review.totalUpvotes = review.totalUpvotes + 1;\r\n      review.totalRewards = review.totalRewards + msg.value;\r\n    }\r\n    if(_totalDown == 1 ){\r\n      review.totalDownvotes = review.totalDownvotes + 1;\r\n      review.totalRewards = review.totalRewards - msg.value;\r\n    }\r\n    \r\n\r\n    // we don't allow the reviewer to upvote/downvote his own reviews\r\n    require(review.reviewer != msg.sender);\r\n\r\n    // keep visitor's information\r\n    review.visitor = msg.sender;\r\n\r\n    // the visitor can review the Reviews\r\n    review.reviewer.transfer(msg.value);\r\n    \r\n    // address payable reviewPayable = address(review.reviewer);\r\n    // reviewPayable.transfer(msg.sender);\r\n\r\n    // trigger the event\r\n    emit viewReviewEvent(_id, review.reviewer, review.visitor, review.name, review.totalUpvotes, review.totalRewards, review.totalDownvotes, review.ipfsHash);\r\n  }\r\n\r\n  //kill the smart contract\r\n  function kill() onlyOwner public {\r\n    selfdestruct(owner);\r\n  }\r\n}\r\n",
  "sourcePath": "/Users/muhammadyounas/NEU/Dev/ethereumreviewsystem/contracts/ReReviews.sol",
  "compiler": {
    "name": "solc",
    "version": "0.5.16+commit.9c3226ce.Emscripten.clang"
  },
  "schemaVersion": "3.4.3",
  "updatedAt": "2022-01-20T12:02:38.034Z",
  "networkType": "ethereum",
  "devdoc": {
    "methods": {}
  },
  "userdoc": {
    "methods": {}
  }
}